:0200000460009A
:100000004643464200000156000000000103030081
:1000100000000000000000000000000000000000E0
:1000200000000000000000000000000000000000D0
:1000300000000000000000000000000000000000C0
:1000400000000000010408000000000000000000A3
:100050000000800000000000000000000000000020
:100060000000000000000000000000000000000090
:100070000000000000000000000000000000000080
:10008000EB04180A063204260000000000000000FD
:10009000050404240000000000000000000000002F
:1000A0000000000000000000000000000000000050
:1000B0000604000000000000000000000000000036
:1000C0000000000000000000000000000000000030
:1000D00020041808000000000000000000000000DC
:1000E0000000000000000000000000000000000010
:1000F0000000000000000000000000000000000000
:10010000D8041808000000000000000000000000F3
:100110000204180804200000000000000000000095
:1001200000000000000000000000000000000000CF
:10013000600400000000000000000000000000005B
:1001400000000000000000000000000000000000AF
:10015000000000000000000000000000000000009F
:10016000000000000000000000000000000000008F
:10017000000000000000000000000000000000007F
:10018000000000000000000000000000000000006F
:10019000000000000000000000000000000000005F
:1001A000000000000000000000000000000000004F
:1001B000000000000000000000000000000000003F
:1001C000000100000010000001000000000000001D
:1001D000000001000000000000000000000000001E
:1001E000000000000000000000000000000000000F
:1001F00000000000000000000000000000000000FF
:10020000FFFFFFFFFFFFFFFFFFFFFFFFFFFFFFFFFE
:10021000FFFFFFFFFFFFFFFFFFFFFFFFFFFFFFFFEE
:10100000D100204325160060000000000000000011
:10101000201000600010006000FC02600000000072
:10102000000000600008030000000000FFFFFFFF59
:10103000FFFFFFFFFFFFFFFFFFFFFFFFFFFFFFFFC0
:10104000FFFFFFFFFFFFFFFFFFFFFFFFFFFFFFFFB0
:10105000FFFFFFFFFFFFFFFFFFFFFFFFFFFFFFFFA0
:10106000FFFFFFFFFFFFFFFFFFFFFFFFFFFFFFFF90
:10140000884207D0904205D251F8043B40F8043B93
:101410008242F9D8704700BF884204D2002340F8C6
:10142000043B8142FBD870472DE9884800F05EFA02
:101430000824614B614AC3F8544161496148FFF790
:10144000DFFF614A61496248FFF7DAFF614962489C
:10145000FFF7E2FF614C4FF0E0214FF470000023F2
:101460005F4AC1F8880D44F823200133B02BFAD12C
:101470005C4B80215C4A03F8011B9342FBD14FF087
:10148000E0254D4E4FF08039DFF88CB1DFF88CA1AC
:101490004FF0FF31C5F8084D0027C6F80491C6F893
:1014A00000B1C6F8F490C6F8F0A0D5F8243DDFF8F6
:1014B000708143F4E0234D4AC5F8243DD8F81C3030
:1014C00023F07F0343F04003C8F81C30D8F82430E1
:1014D00023F07F0343F04003C8F824309166D166BF
:1014E0001167516700F00AFA414B4249A363424B2E
:1014F000E36363236B610323AF612B613F4BC5F84B
:10150000203DD5F8FC3D43F08073C5F8FC3D3C4BD5
:101510001A6842F001021A605B680B6000F02CFC54
:10152000C6F804913748C6F800B1C6F8F490C6F87A
:10153000F0A000F0B9FDD8F86C10334B334A41F4F9
:101540004051C8F86C101F60C3F80871C3F81871D7
:10155000C3F82871C3F83871936BDB0708D442F6DF
:1015600015632B4951651365936B43F00103936336
:10157000264A284C936843F00113936000F03AFA2E
:1015800000F05EFD00F08CFD00F024FC00F0B0F9EE
:101590002368132BFCD900F0B5FC2368B3F5967FC4
:1015A000FBD300F0A9F900F0A5F900F095FD00F0DB
:1015B00097FD30BFFDE700BF00800D40A47F020013
:1015C000D835006000000000C042002080B50260F5
:1015D00000000020A0C90020C042002000400020E0
:1015E000296C010000E400E0A0E400E000C00A4033
:1015F0009553010020BC00209953010000002020D9
:10160000001000E00046C3230040084000400D40A9
:101610000000C05624BC00201B1018200C0D111314
:1016200000C00F40074B4FF42A01074A07485A648D
:101630001864074A99639546BFF34F8FBFF36F8FC6
:10164000FFF7F2FE00C00A40FFABAAAA0700200085
:10165000008005201BB9124B1B6F9B041ED400F0A9
:101660003F000F4B22F0604221F0604140F48910AE
:101670001867C3F88010C3F890201A6F22F48052C4
:101680001A671A6F002AFCDAD3F87011054A0A406B
:10169000C3F870211A6F22F480321A67704700BFB6
:1016A00000800D40FF7F7FFF43690A4A03EB011072
:1016B00010B4037A084C02EB0313D3E9013214602F
:1016C000C2681A6003690BB142691A605DF8044B85
:1016D000704700BFC424002061F801004369027E06
:1016E00003EB021292F808C08C451CD01A7AFF2A2C
:1016F00019D0914210B5044616D01A7EFF2A06D0A2
:101700000121D3E9002312681A4201D1217610BDCC
:10171000064B0522204603EB0C135B681A60FFF7AB
:10172000C3FF2176F3E770470021EAE7C4240020D5
:1017300043690A4A03EB011010B490F82830084CB2
:1017400002EB0313D3E901321460C26A1A60036B1F
:101750000BB1426B1A605DF8044B7047C424002043
:1017600061F801004369427E03EB021292F828C03F
:101770008C451ED093F82820FF2A1AD0914210B52C
:10178000044617D093F83820FF2A06D00121D3E968
:10179000002312681A4201D1617610BD064B052262
:1017A000204603EB0C135B681A60FFF7C1FF6176FC
:1017B000F3E770470021EAE7C42400201649426994
:1017C0008B6B23F47C0343F4802370B58B63044656
:1017D000124DD2E900130A681A4303690A60022213
:1017E00000211A610E4A19619A6401225A629D62AF
:1017F0004FF43035DD624FF001159E6C1E651962A5
:101800009D651A61017EFFF74FFF617E2046BDE8AE
:101810007040FFF78DBF00BF00C00F40B80B05053B
:101820003B372819B1F5607FF8B50E460F4628BF43
:101830004FF46076054672B6234B00247022186080
:101840002146224B22481C8000F036FCCFB12146B5
:101850001F484FF0010C4A0901F01F03013150F8F5
:1018600022400CFA03F38E4243EA040340F822308C
:10187000F1D8284600234380013300F582709E4250
:10188000F9D8144C25780DB162B6F8BD082000F0E7
:101890000FFC8022104902710560104A00F018FC0C
:1018A0002378002BF0D10E4B0E4AC3F858210E4975
:1018B000D0204FF0E023402281F84600C3F80821F1
:1018C0000123237062B6F8BD345000202CC90020DB
:1018D0003C50002047C90020BD4D01001B100100F5
:1018E00000400020C94D010000E400E0704700BF47
:1018F000704700BF704700BF00BF704710B44FF083
:10190000E023002110242B48C3F8941DC3F89C4DFC
:101910001124C3F8A00D2848C3F89C4D1224C3F825
:10192000A00D2648C3F89C4D254AC3F8A00D254CB0
:1019300042F015022448C3F89C4DC3F8A00D234C77
:101940002348C3F89C4DC3F8A00D224CC3F89C2D2E
:101950002148224AC3F8A04DC3F89C0DC3F8A02D1E
:1019600002F5A0221E4C0C321E48C3F89C4DC3F851
:10197000A02D1D4AC3F89C0D1C4CC3F8A02D0122BC
:101980001B48C3F89C4DC3F8A00DC3F8942DBFF3BA
:101990004F8FBFF36F8FC3F8501FBFF34F8FBFF34D
:1019A0006F8FD3F8142D5DF8044B42F44032C3F826
:1019B000142D70473F000010250008030900100097
:1019C000A0C90020130020002100020714000020FD
:1019D00025000813090000101600202027000B1313
:1019E00017000040180000602F000B07190000705E
:1019F0002F000B13F0B5B84B1822B84E0120B84F8A
:101A000083B0C3F85C62B749C3F86072B64DC3F8DF
:101A10006462A6F53046B54CC3F86862C3F86C52F0
:101A2000C3F87052C3F87452C3F8785248F20C7578
:101A3000DA661A675A679A67DA67C3F88020C3F8CC
:101A40008420C3F88820C1F82C03A94AC1F83003C8
:101A5000C1F83403C1F83803C1F83C03C1F850039E
:101A6000A169A44B0A40A448A4491343A44AA36112
:101A7000D4F8843043F00C03C4F884304FF0FF34C2
:101A8000036843F00203036003682B404FF40055E2
:101A90001A439C4B026044608A689B4C13409B4AEB
:101AA00043F000538360C36823F07803C360036A84
:101AB000134023430362036A1340954A2343954C22
:101AC00043628262C2620022D1F8B83023F03F0341
:101AD00043F00103C0F8B830D1F8BC308E4923F090
:101AE0003F0343F00103C0F8BC3040F205630261DC
:101AF00005660467C0F88030456644670224C0F874
:101B00008430036823F0020303608161834B8449BE
:101B1000C46143F8042B8B42FBD1774A136843F02E
:101B200001031360136813F00103FBD17A4802210B
:101B300040F2F564906140F29940D16140F2664113
:101B4000C2F8004242F20144C2F810127549C2F8CC
:101B50002002C2F8301240F235417348C2F83442D4
:101B6000C2F84012714CC2F8500242F20120704992
:101B7000C2F854120121C2F86042C2F864025E4801
:101B8000C2F8A030C2F8A430C2F8B0104369DA0736
:101B9000FCD5012300244FF4803257494361C0F83B
:101BA000A040C0F8A420C0F8B0304B69DB07FCD5DA
:101BB000012300244FF400304F4A4B61C1F8A0408C
:101BC000C1F8A400C1F8B0305369DF07FCD5012388
:101BD0000024584848495361C2F8A040C2F8A40004
:101BE000C2F8B0304B69DE07FCD5D1F8003145F6BC
:101BF0000D5221209BB24861934265D100244FF4DD
:101C0000802201233C48C1F8A040C1F8A420C1F8BB
:101C1000B0304369DD07FCD501234FF400040021F7
:101C2000354A4361C0F8A040C0F8A410C0F8B030F5
:101C30005369DC07FCD501234FF400044FF48030D6
:101C40002D495361C2F8A040C2F8A400C2F8B030D8
:101C50004B69D807FCD501234FF400044FF4003042
:101C6000254A4B61C1F8A040C1F8A400C1F8B030CA
:101C70005369D907FCD501234FF400042D481E49B0
:101C80005361C2F8A040C2F8A400C2F8B0304B695A
:101C9000DA07FCD5D1F8003145F60D5221209BB270
:101CA0004861934250D008254FF400042249002097
:101CB000224B234A009015705A1A012321482244CE
:101CC00000F0FEF903B0F0BD1E4B0022C3E9002274
:101CD000C3E9022203B0F0BD00801F40F9B001004B
:101CE000F910010000841F40F970010000C00F408E
:101CF000FFFCFF1F000300A000402A4000802A4094
:101D00001200FFFFFF37F7004000008000FFF07C6B
:101D1000FF000F8363000200F05AF05A00422A408D
:101D200000432A409F041830EB06180A3806180AA8
:101D30000632012604000300E0E0D87000000070C5
:101D400050C90020B86B00204FF400044FF48022EB
:101D500001230848C1F8A040C1F8A420C1F8B03060
:101D60004369DB07FCD5012310254FF080744361E4
:101D70009CE700BF00402A40F0B4154A40274FF4CA
:101D800080314FF480564FF400554FF4404443F2F5
:101D90004200136913F0020F0ED113F4005F0FD04D
:101DA00013F4805F0ED0002BF3DA13F4803F0BD1D5
:101DB0005B060BD5F0BC7047946151619061E8E718
:101DC0005561E6E75661E4E79161E2E75761E0E7D4
:101DD00000800D403F4A03203F49F3EE095AD2F8F4
:101DE00080304FF0000C9FED3D6A23F001039FED22
:101DF0003C5A30B4C2F88030C2F89000D1F8E010FC
:101E0000384DCBB2384C39482B6007EE903A0B0D69
:101E1000C1F30B21F8EEE77A06EE903A07EE101ABE
:101E2000334BB8EEC77A2160F8EEE66A314937EEF7
:101E3000C66A37EEC55A76EEC76A77EEE57A26EEC1
:101E4000266AC3ED006A25EE265AD2F8803067EE86
:101E5000A64AC0ED007AC6EE275A274885EE276AC3
:101E6000C4EEA76A75EE875AFCEEE55A36EE076AAD
:101E700015EE904ABCEEC66A43EA045376EE877AC2
:101E8000C2F8803016EE103AD2F89041FCEEE77AB4
:101E900001EA0341214317EE903AC2F89011C3F3CF
:101EA0000B03D2F890110B431449C2F89031D2F8C9
:101EB000803043F00203C2F88030114B80F840C0FC
:101EC000C1F840314FF0E023012230BCC3F80821B3
:101ED000704700BF00810D4000441F400000AA422F
:101EE0000000B442FCB90020F8B9002000BA00207C
:101EF00004BA00200000FF0F00E400E000400020D2
:101F0000096E0100314B40F6617210B5C3F8202113
:101F100040F2044400F0E8F82D4A2E49D2F880300F
:101F20002D4843F00303C2F880302C4BC1F86041C8
:101F300002681A4203D1D1F8A8319A071BD0254A6A
:101F40004FF00041244B5963D2F8403143F0020373
:101F5000C2F84031D2F840319B07FBD44FF4003037
:101F60004FF0E0211C4B4FF00042C1F88C021920C9
:101F70009A6300F0A9F8184A4FF08040154C0021F0
:101F800090630A20164B11604FF42072C4F8A80128
:101F9000184600F091F84FF4800203464FF4810098
:101FA00040F243111860C4F858311A640D4B0E4AC0
:101FB000C4F84811C3F804224FF0E0224FF4003176
:101FC0000123C2F80C11C4F8403110BD00800D404F
:101FD00000C00F4000002E4000900D40001C1E006D
:101FE0000000002000400020F16F010008B50E4BFA
:101FF0001B6E9B0700D4FBBE72B60C4B00200C4A34
:10200000C3F8400103F160430A49A3F55F2311645B
:102010009D46BFF34F8F4FF400130748074ADB6913
:1020200002609B68984700BF00441F4000002E409C
:1020300000C00A400300200000802020000012EBB6
:10204000104BA020104AD96E41F4403110B4D9662B
:1020500040F23764D96E41F44071D966546490649B
:10206000936C1B06FCD4094A40F23761A0235164EB
:102070009364936C13F08003FBD1054A13705DF8F1
:10208000044B704700C00F4000400C4000800C40E3
:102090004FC90020F8B500BFF8BC08BC9E46704789
:1020A0005FF800F0116B01005FF800F0A55B010024
:1020B0005FF800F0D16601005FF800F0E124020053
:1020C0005FF800F0118701005FF800F0955E0100F5
:1020D0005FF800F0115401005FF800F0F92A0200E7
:1020E0005FF800F08D6501005FF800F02D770100CA
:1020F00001010000D59A0000F5AF0000EDB400002A
:1021000041B5000001BD000019BD000031BD000057
:1021100049BD000061BD000079BD000091BD000017
:10212000A9BD0000C1BD0000D9BD0000F1BD000087
:102130009DC30000B5C30000CDC30000E5C300008F
:10214000FDC3000015C400002DC4000045C40000FC
:1021500079C40000A9C40000C1C40000D9C40000B3
:10216000F1C4000009C5000091D20000794D0100C2
:04217000A58D010038
:10217400020000000400000003000000040000004E
:10218400040000000400000005000000040000003A
:102194000700000004000000080000000400000024
:1021A40009000000040000000C000000040000000E
:1021B4000D000000040000000E00000004000000F8
:1021C4000F000000040000000200000005000000F1
:1021D40005000000050000000700000005000000E5
:1021E40009000000050000000A00000005000000CE
:1021F4000C000000050000000F00000005000000B6
:1022040002000000060000000700000006000000B5
:102214000A000000060000000F0000000600000095
:102224000200000007000000030000000700000097
:102234000400000007000000050000000700000083
:1022440007000000070000000A000000070000006B
:102254000D000000070000000E0000000700000051
:102264000F00000007000000050000000800000047
:1022740007000000080000000A0000000800000039
:102284000D0000000800000002000000090000002A
:10229400050000000900000007000000090000001C
:1022A40009000000090000000A0000000900000005
:1022B400020000000A000000030000000A00000001
:1022C400040000000A000000050000000A000000ED
:1022D400070000000A000000080000000A000000D7
:1022E400090000000A0000000D0000000A000000C0
:1022F40001000000010000000200000001000000D5
:1023040003000000010000000400000001000000C0
:1023140004000000020000000100000003000000AF
:10232400040000000300000001000000040000009D
:10233400040000000400000001000000050000008B
:102344000400000005000000010000000600000079
:102354000400000006000000010000000700000067
:102364000400000007000000010000000800000055
:102374000100000009000000020000000900000044
:102384000300000009000000040000000900000030
:10239400010000000200000004000000080000002A
:1023A4000400000008000000040000000800000011
:1023B4000300000001000000020000000200000011
:1023C4000300000002000000010000000300000000
:1023D40003000000030000000300000004000000EC
:1023E40003000000050000000300000006000000D8
:1023F40003000000070000000300000008000000C4
:1024040002000000090000000300000009000000B1
:10241400040000000900000004000000090000009E
:10242400040000000900000004000000090000008E
:10243400040000000900000004000000090000007E
:10244400040000000900000004000000090000006E
:10245400040000000900000004000000090000005E
:10246400040000000900000004000000090000004E
:102474000100000001000000020000000100000053
:10248400030000000100000004000000010000003F
:10249400040000000200000004000000030000002B
:1024A400040000000400000001000000050000001A
:1024B4000200000005000000030000000500000009
:1024C40004000000050000000100000006000000F8
:1024D40001000000070000000100000008000000E7
:1024E40001000000090000000200000009000000D3
:1024F40003000000090000000400000009000000BF
:1025040001000000020000000400000008000000B8
:10251400040000000800000004000000080000009F
:10252400040000000800000004000000080000008F
:102534000100000001000000020000000100000092
:10254400030000000100000004000000010000007E
:10255400040000000200000004000000030000006A
:102564000400000004000000020000000500000058
:102574000300000005000000040000000500000046
:102584000400000006000000040000000700000032
:102594000400000008000000010000000900000021
:1025A4000200000009000000030000000900000010
:1025B40004000000090000000400000009000000FD
:1025C40004000000090000000400000009000000ED
:1025D40004000000090000000400000009000000DD
:1025E40004000000090000000400000009000000CD
:1025F40001000000010000000400000001000000D0
:1026040001000000020000000400000002000000BD
:1026140001000000030000000400000003000000AB
:102624000100000004000000040000000400000099
:102634000100000005000000020000000500000089
:102644000300000005000000040000000500000075
:102654000400000006000000040000000700000061
:10266400040000000800000004000000090000004D
:10267400040000000900000004000000090000003C
:10268400040000000900000004000000090000002C
:10269400040000000900000004000000090000001C
:1026A400040000000900000004000000090000000C
:1026B4000100000001000000020000000100000011
:1026C40003000000010000000400000001000000FD
:1026D40001000000020000000100000003000000EF
:1026E40001000000040000000100000005000000DB
:1026F40002000000050000000300000005000000C7
:1027040004000000050000000400000006000000B2
:10271400040000000700000004000000080000009E
:102724000100000009000000020000000900000090
:10273400030000000900000004000000090000007C
:10274400040000000900000004000000090000006B
:10275400040000000900000004000000090000005B
:10276400040000000900000004000000090000004B
:102774000100000001000000020000000100000050
:10278400030000000100000004000000010000003C
:10279400010000000200000001000000030000002E
:1027A400010000000400000001000000050000001A
:1027B4000200000005000000030000000500000006
:1027C40004000000050000000100000006000000F5
:1027D40004000000060000000100000007000000E3
:1027E40004000000070000000100000008000000D1
:1027F40004000000080000000100000009000000BF
:1028040002000000090000000300000009000000AD
:10281400040000000900000004000000090000009A
:10282400040000000900000004000000090000008A
:10283400010000000100000002000000010000008F
:10284400030000000100000004000000010000007B
:102854000400000002000000040000000300000067
:102864000400000004000000040000000500000053
:10287400040000000600000004000000070000003F
:10288400040000000800000004000000090000002B
:10289400010000000200000001000000020000002E
:1028A400010000000200000001000000020000001E
:1028B400010000000200000001000000020000000E
:1028C40001000000020000000100000002000000FE
:1028D40001000000020000000100000002000000EE
:1028E40001000000020000000100000002000000DE
:1028F40001000000010000000200000001000000CF
:1029040003000000010000000400000001000000BA
:1029140004000000020000000100000003000000A9
:102924000400000003000000010000000400000097
:102934000400000004000000010000000500000085
:102944000200000005000000030000000500000074
:102954000400000005000000010000000600000063
:102964000400000006000000010000000700000051
:10297400040000000700000001000000080000003F
:10298400010000000900000002000000090000002E
:10299400030000000900000004000000090000001A
:1029A4000100000002000000040000000800000014
:1029B400010000000100000002000000010000000E
:1029C40003000000010000000400000001000000FA
:1029D40004000000020000000100000003000000E9
:1029E40004000000030000000100000004000000D7
:1029F40004000000040000000100000005000000C5
:102A040002000000050000000300000005000000B3
:102A1400040000000500000004000000060000009F
:102A2400040000000700000001000000090000008D
:102A3400020000000900000003000000090000007B
:102A44000400000009000000010000000200000072
:102A5400040000000800000004000000080000005A
:102A6400040000000800000004000000080000004A
:102A74000200000002000000030000000200000049
:102A84000400000002000000050000000200000035
:102A94000500000003000000060000000400000020
:102AA4000700000005000000080000000600000008
:102AB40009000000070000000A00000008000000F0
:102AC4000B000000090000000C0000000A000000D8
:102AD4000C000000090000000C00000008000000C9
:102AE4000C000000070000000D00000007000000BB
:102AF4000E000000070000000F00000007000000A7
:102B04000F000000080000000F0000000900000092
:102B14000F0000000A0000000F0000000B0000007E
:102B24000F0000000C0000000F0000000D0000006A
:102B34000F0000000E0000000F0000000F00000056
:102B44000E0000000F0000000D0000000F00000048
:102B54000C0000000F0000000C0000000E0000003C
:102B64000B0000000D0000000A0000000C00000033
:102B7400090000000B000000080000000A0000002B
:102B84000700000009000000060000000800000023
:102B94000500000007000000050000000800000018
:102BA4000500000009000000050000000A00000004
:102BB400050000000B000000050000000C000000F0
:102BC400050000000D000000050000000E000000DC
:102BD400050000000F000000040000000F000000CA
:102BE400030000000F000000020000000F000000BE
:102BF400020000000E000000020000000D000000B2
:102C0400020000000C000000020000000B000000A5
:102C1400020000000A000000020000000900000099
:102C2400020000000800000002000000070000008D
:102C34000200000006000000020000000500000081
:102C44000200000004000000020000000300000075
:102C54000C000000020000000D0000000200000053
:102C64000E000000020000000F000000020000003F
:102C74000F000000030000000F000000040000002B
:102C84000F000000050000000E0000000500000019
:102C94000D000000050000000C000000050000000D
:102CA4000C000000040000000C0000000300000001
:102CB4000200000001000000020000000200000009
:102CC40003000000020000000200000003000000F6
:102CD40002000000040000000400000004000000E2
:102CE40001000000050000000200000005000000D3
:102CF40004000000050000000500000005000000BD
:102D040001000000060000000200000006000000B0
:102D1400040000000600000004000000070000009A
:102D24000300000008000000040000000800000088
:102D34000300000009000000040000000900000076
:102D44000300000001000000030000000200000076
:102D54000300000003000000040000000300000062
:102D64000300000005000000040000000200000051
:102D74000500000003000000030000000400000040
:102D8400030000000500000003000000060000002E
:102D9400010000000700000002000000070000001E
:102DA400030000000700000001000000080000000C
:102DB40002000000080000000300000008000000FA
:102DC40001000000090000000200000009000000EA
:102DD40003000000090000000300000001000000DF
:102DE40003000000020000000300000003000000D4
:102DF40003000000040000000100000005000000C2
:102E040002000000050000000300000005000000AF
:102E1400040000000500000005000000050000009B
:102E2400020000000600000003000000060000008D
:102E3400040000000600000003000000070000007A
:102E44000100000008000000050000000800000068
:102E54000100000009000000020000000900000059
:102E64000300000009000000040000000900000045
:102E74000500000009000000020000000B00000033
:102E8400030000000B000000040000000B00000021
:102E9400070000000B000000080000000B00000009
:102EA400090000000B0000000B0000000B000000F4
:102EB4000F0000000B000000020000000C000000E6
:102EC400040000000C000000070000000C000000DB
:102ED400090000000C0000000B0000000C000000C2
:102EE4000C0000000C0000000E0000000C000000AC
:102EF4000F0000000C000000020000000D000000A4
:102F0400030000000D000000040000000D0000009C
:102F1400050000000D000000070000000D00000087
:102F2400080000000D000000090000000D00000072
:102F34000B0000000D0000000D0000000D0000005B
:102F44000F0000000D000000020000000E00000051
:102F5400050000000E000000070000000E00000045
:102F64000B0000000E0000000F0000000E00000027
:102F7400020000000F000000030000000F0000002A
:102F8400040000000F000000050000000F00000016
:102F9400070000000F0000000B0000000F000000FD
:102FA4000F0000000F00000070C00F40C0000000C0
:102FB4001200000013000000D0841F400100000034
:102FC400FF000000FF0000000000000000000000FF
:102FD4001300000013000000CC841F400100000017
:102FE400FF000000FF0000000000000000000000DF
:102FF4001C000000554D010070C00F40000C000083
:103004001100000011000000E0841F4002000000D5
:103014002C00000012000000E0841F4001000000AA
:103024001000000011000000DC841F4002000000BA
:103034002D00000012000000DC841F40010000008D
:103044001E000000614D010080C00F40000000031D
:103054001900000010000000E8841F400100000077
:10306400FF000000FF00000000000000000000005E
:103074001800000010000000E4841F40010000005C
:10308400FF000000FF00000000000000000000003E
:103094001F0000006D4D0100000000001E035400DD
:1030A400650065006E007300790020004D00490042
:1030B4004400490078003100360000001803540031
:1030C400650065006E007300790064007500690096
:1030D4006E006F000403090409027502030100C0B5
:1030E40032080B000202020100090400000102027E
:1030F4000100052400100105240101010424020635
:1031040005240600010705820310001009040100CC
:10311400020A0000000705030240000007058302BD
:10312400400000090402000201030000072401001A
:1031340001E701062402010100062402020200093B
:103144002403010301020100092403020401010113
:1031540000062402010500062402020600092403D5
:103164000107010601000924030208010501000604
:103174002402010900062402020A00092403010BA7
:10318400010A0100092403020C01090100062402BA
:10319400010D00062402020E00092403010F010E92
:1031A40001000924030210010D010006240201118B
:1031B4000006240202120009240301130112010073
:1031C400092403021401110100062402011500065A
:1031D4002402021600092403011701160100092420
:1031E4000302180115010006240201190006240235
:1031F400021A00092403011B011A01000924030215
:103204001C01190100062402011D00062402021EED
:1032140000092403011F011E0100092403022001E7
:103224001D010006240201210006240202220009D5
:1032340024030123012201000924030224012101A2
:1032440000062402012500062402022600092403A4
:103254000127012601000924030228012501000693
:103264002402012900062402022A00092403012B56
:10327400012A0100092403022C0129010006240269
:10328400012D00062402022E00092403012F012E21
:1032940001000924030230012D010006240201313A
:1032A4000006240202320009240301330132010022
:1032B4000924030234013101000624020135000609
:1032C40024020236000924030137013601000924CF
:1032D40003023801350100062402013900062402E4
:1032E400023A00092403013B013A010009240302C4
:1032F4003C01390100062402013D00062402023E7D
:1033040000092403013F013E010009240302400196
:103314003D010009050402400000000014250110CD
:103324000105090D1115191D2125292D3135393DA9
:103334000905840240000000001425011003070B56
:103344000F13171B1F23272B2F33373B3F0000007E
:1033540009027502030100C032080B0002020201D7
:103364000009040000010202010005240010010507
:103374002401010104240206052406000107058234
:103384000310000509040100020A000000070503F8
:103394000200020007058302000200090402000281
:1033A400010300000724010001E7010624020101D2
:1033B40000062402020200092403010301020100A1
:1033C4000924030204010101000624020105000688
:1033D400240202060009240301070106010009244E
:1033E4000302080105010006240201090006240263
:1033F400020A00092403010B010A01000924030243
:103404000C01090100062402010D00062402020E2B
:1034140000092403010F010E010009240302100115
:103424000D01000624020111000624020212000903
:1034340024030113011201000924030214011101E0
:1034440000062402011500062402021600092403C2
:1034540001170116010009240302180115010006D1
:103464002402011900062402021A00092403011B84
:10347400011A0100092403021C0119010006240297
:10348400011D00062402021E00092403011F011E5F
:1034940001000924030220011D0100062402012168
:1034A4000006240202220009240301230122010050
:1034B4000924030224012101000624020125000637
:1034C40024020226000924030127012601000924FD
:1034D4000302280125010006240201290006240212
:1034E400022A00092403012B012A010009240302F2
:1034F4002C01290100062402012D00062402022EBB
:1035040000092403012F012E0100092403023001C4
:103514002D010006240201310006240202320009B2
:10352400240301330132010009240302340131016F
:103534000006240201350006240202360009240391
:103544000137013601000924030238013501000660
:103554002402013900062402023A00092403013B33
:10356400013A0100092403023C0139010006240246
:10357400013D00062402023E00092403013F013EEE
:1035840001000924030240013D0100090504020071
:1035940002000000142501100105090D1115191D63
:1035A4002125292D3135393D090584020002000009
:1035B400001425011003070B0F13171B1F23272BC0
:1035C4002F33373B3F0000000A060002EF020140A0
:0435D40001000000F2
:1035D80000000000000000000000000000000000E3
:1035E80000000000000000000000000000000000D3
:1035F800F8B54FF084439D695A6915400DD0244FA2
:1036080001269D6195FAA5F4B4FA84F457F824309C
:1036180006FA04F49847A543F4D11E4B9D695A69EC
:1036280015400DD01C4F01269D6195FAA5F4B4FAFA
:1036380084F457F8243006FA04F49847A543F4D1E3
:10364800164B9D695A6915400DD0154F01269D618D
:1036580095FAA5F4B4FA84F457F8243006FA04F479
:103668009847A543F4D10F4B9D695A6915400DD071
:103678000D4F01269D6195FAA5F4B4FA84F457F824
:10368800243006FA04F49847A543F4D1F8BD00BFE6
:103698002839002000400042A8390020008000425C
:1036A800283A002000C00042A83A00200548064BEE
:1036B8001B1AD90F01EBA301491002D0034B03B128
:1036C80018477047C0420020C04200200000000098
:1036D80008B5054B1BB105490548AFF30080BDE8A7
:1036E8000840FFF7E3BF00BF0000000040B600201D
:1036F8000008036000207047704700BF40697047AA
:1037080000207047006910B10368DB6818477047EC
:10371800006910B103681B6918477047006910B148
:1037280003685B6918474FF0FF307047006910B1B4
:1037380003689B6918477047006980B103680122D4
:1037480000B583B09B680DF10701984720B19DF83B
:10375800070003B05DF804FB4FF0FF30F9E74FF0C6
:10376800FF30704700B5006983B08DF8071028B1A5
:10377800036801220DF10701DB68984703B05DF883
:1037880004FB00BF036D0BB101207047406D00388A
:1037980018BF0120704700BF704700BF436D33F961
:1037A80011007047406D70470022064910B44FF46D
:1037B8007A74027301600261C0E901245DF8044B68
:1037C800704700BFD4140020704700BF082070471E
:1037D8002DE9F04190B0CDE9013182EAE273817CB4
:1037E800BDF804C0A3EBE2739DF806400129ADF8CB
:1037F8001AC08DF81C40CDE903331DD00021059176
:10380800ADF81810032403EB430C07A90DF13C0E87
:1038180000238DF81D4041F8043F71456344FAD1F7
:10382800002A02DAFD238DF81D30036802A9DB693E
:10383800984710B0BDE8F0811D4C0DF117064FF404
:1038480080772178013101F007014FEAC11C21700E
:103858008C075FFA8CFC48BF4CF0400C490705A95F
:1038680048BF4CF0200C8C790CF1100C5FFA8CFCE2
:10387800D4B1B7FBF4F4E4B2651CEDB205FB0CCE91
:10388800CD70CEF307285FEA2E2E08F1FF380CBF63
:1038980081F800E081F8008005B1CC7001318E42DA
:1038A800B0D08C79002CE4D1CC700C70F6E700BF56
:1038B8004CC9002010B50446682116F0F9F92046D5
:1038C80010BD00BF10B50446806D18B120F038FF58
:1038D8000023A365236D2BB104F11800BDE8104047
:1038E80011F042BC636D002BF6D110BD10B5044633
:1038F80015F0E6FA204610BD38B5054CA4F1D00500
:10390800103C204615F0DCFAAC42F9D138BD00BFB6
:1039180094C700202DE9F047856904468A46002DA2
:1039280067D0DAF80830E269002B5DDDDAF800309C
:1039380003329878034628B19AF80E300344FF2BD7
:1039480028BFFF239AF8140000FB03331B1202F868
:10395800033CDAF800301878034628B19AF80C309E
:103968000344FF2B28BFFF239AF8120000FB033300
:103978001B1202F8023CDAF800305878034628B1E6
:103988009AF80D300344FF2B28BFFF239AF8130041
:10399800033200FB03331B1202F8043CDAF8080078
:1039A8009AF80C909AF80D8001389AF80E70DAF8A7
:1039B800003000289AF80F509AF810E09AF811C0D1
:1039C800A5EB09059AF91560AEEB080EACEB070CF0
:1039D8008AF80C5033448AF80DE08AF80EC0CAF809
:1039E8000030CAF80800A4DCA069BDE8F0470AF076
:1039F80025BA4E6806EB4607384620F099FEE06186
:103A0800B80020F095FE20621C2016F049F9226AC1
:103A180006804260FF22A0610275E26985618260CA
:103A28001122C0E9035542800AF018F979E700BF6E
:103A38003A4B984210B444D0394B984221D0394B74
:103A4800984242D1384B02225A60384A904242D1B9
:103A580001229A60364A904242D10222DA60354CFD
:103A68001968226891421ED00FCB84E80F00324AB1
:103A7800324910680122324B08601A705DF8044B15
:103A88007047294B01225A602E4A9042DDD1092203
:103A98009A602D4A9042DDD10122264C1968DA60DD
:103AA80022689142E0D1596862689142DCD1274A84
:103AB800A16810688842D7D15168E2689142D3D191
:103AC800DCE7194B09225A60DEE7214B984218D1EE
:103AD800154B05225A601F4A904207D102229A606C
:103AE8001D4A904207D10522DA60B8E71B4A904286
:103AF8000DD103229A601A4A9042B0D10322DA60AB
:103B0800ADE7184B9842084BBED103225A60164ABB
:103B18009042BED10922DA60A1E700BF000A002066
:103B2800040A002050300020BC6700205C300020D0
:103B3800FC2F002068B6002024BC0020E86B002081
:103B480055C90020100A00201C0A0020C467002064
:103B5800080A0020140A002068240020180A0020FF
:103B6800200A00200C0A00200018002010B5044686
:103B780014F09AFF204610BD10B50446806D00B1C0
:103B880010BD4FF4807020F0D3FDA065B0B10022C5
:103B9800236D02703BB101464FF48072184610F055
:103BA80033FFA06D10BD636D002BE9D001464FF4C3
:103BB800807218460EF0D6FBA06D10BD014B18465A
:103BC800A36510BD4DC9002000B5836C83B08DF886
:103BD800071043B101220DF1070118460FF02CFE22
:103BE80003B05DF804FBC06C0028F9D001220DF188
:103BF80007010DF0F5FE03B05DF804FB38B5056D5F
:103C08006DB10BB1002038BD114628460FF038FCC5
:103C18000028F7D02846BDE838400FF0D3BD446DE2
:103C2800002CEFD020460CF0EFFF0028EAD0204609
:103C3800BDE838400DF062BE8A79A2F150031B0638
:103C480022D402F26C72F0B54B7985B0046D013361
:103C58000D798E784F78DBB209784CB12046019601
:103C68000095CDE9027102210FF040FD05B0F0BDCD
:103C7800406D0028FAD001960095CDE90271022125
:103C88000DF080FD05B0F0BD00207047836C13B1C6
:103C980018460FF025BDC06C08B10DF0FDBB70478C
:103CA800836C00B583B063B101220DF1070118469A
:103CB8000FF09EF901280CD19DF8070003B05DF8BC
:103CC80004FBC06C28B101220DF107010CF0B6FE0F
:103CD800F0E74FF0FF30F1E7836C13B118460FF0AF
:103CE8005BBAC06C08B10CF079BF4FF0FF30704779
:103CF80010B50446006D80B1037813F0700F00D141
:103D080010BD00210FF0BCFB606D0028F8D0002228
:103D18000023BDE810400CF077BF606D0028EFD09D
:103D280090F8313013F0500FEAD000220023BDE89C
:103D380010400CF069BF00BF036D10B50C4682B08F
:103D48002BB30DF1060201A918460EF03FFF38B358
:103D5800BDF80430BDF8062053EA020120D0C2F3B2
:103D6800451C02F01F00D20AC3F34311400084F837
:103D780001C0A2705A0A013903F01F0302F5EA6272
:103D88002070012061712371A27102B010BD406DD5
:103D980030B10DF1060201A90CF0DCFD0028D7D1E5
:103DA800002002B010BD00BF036D10B50C4682B0F4
:103DB8002BB30DF1060201A918460EF0F7FE38B331
:103DC800BDF80430BDF8062053EA020120D0C2F342
:103DD800451C02F01F00D20AC3F34311400084F8C7
:103DE80001C0A2705A0A013903F01F0302F5EA6202
:103DF8002070012061712371A27102B010BD406D65
:103E080030B10DF1060201A90CF092FD0028D7D1BE
:103E1800002002B010BD00BF036D53B1187810F038
:103E280008000DD0D8695B69C01A48BF6FF0004020
:103E38007047436DA3B193F8310010F0080000D12A
:103E48007047186919685A69401A5B6862EB03037E
:103E5800B0F1004F73F10003F2D36FF000407047E8
:103E68001846EDE7012A02D1016000207047022AB6
:103E780005D0032AF9D0002AF7D10260F5E70B68CC
:103E88000360F2E7036D13B1586900217047436D71
:103E980013B1D3E90001704718461946704700BFAF
:103EA800036D13B1D86900217047436D13B1D3E98D
:103EB8000401704718461946704700BF10B5094BF2
:103EC80004468069236038B10368074A5B689342F7
:103ED80004D1682115F0ECFE204610BD9847204615
:103EE80010BD00BF7C140020E5020000F0B595B0BD
:103EF80000224FF47A74244F1831054604A88DF82F
:103F08000C200097CDE90124CDE9122211F098F98F
:103F1800129B002B2DD05C20002615F0C1FE019BC2
:103F280004464660C36004A9029B183040F8083C68
:103F38009DF80C3000F8043C144B40F8183C144B26
:103F480040F8103C11F0CEF8124B4FF47A72A7608B
:103F58002B606368A66501336E602E73AA602C61BE
:103F680063600D4B04A8009311F0FEF8284615B0C5
:103F7800F0BD139B002BCED1064A2B732A602B6110
:103F8800C5E90134EDE700BF001500202415002025
:103F980080150020D414002078130020036D13B17D
:103FA80018460FF0F9B8406D08B10CF017BE4FF085
:103FB800FF307047036D33B11B7813F0700F14BFD7
:103FC800012000207047406D30B190F8313013F077
:103FD800500F14BF01200020704700BF036D13B1BC
:103FE80018460FF005B8406D08B10CF027BD4FF02A
:103FF800FF30704738B5104CA4F58255D4F83431E9
:10400800184623B1D4F83C11C91A15F051FE04F131
:104018001001A3690322084603B19847636818464C
:104028001BB1E168C91A15F043FEA4F5A073AC42B0
:104038001C46E3D138BD00BF5C660020036D13B198
:1040480018460FF04DBB406D08B10DF025BA70470A
:1040580010B50D4B04468069236038B103680B4ADC
:104068005B68934208D1682115F022FE20461C2186
:1040780015F01EFE204610BD984720461C2115F05D
:1040880017FE204610BD00BF7C140020E50200008A
:1040980038B504460C4B806D236018B120F050FBF6
:1040A8000023A365236D04F118054BB1284611F0D0
:1040B8005BF8064B2846A36011F056F8204638BD39
:1040C800636D002BF2D1F4E724150020781300204B
:1040D800036D13B118460FF0AFBB406D08B10DF07A
:1040E8007FBC7047836C13B118460FF0A5BBC06C3A
:1040F80008B10DF075BC70478A79A2F150031B0610
:1041080022D402F26C72F0B54B7985B0046D01339C
:104118000D798E784F78DBB209784CB1204601963C
:104128000095CDE9027104210FF0E0FA05B0F0BD69
:10413800406D0028FAD001960095CDE9027104215E
:104148000DF020FB05B0F0BD0020704738B50446DF
:104158000E4B806D236018B120F0F2FA0023A3659E
:10416800236D04F118056BB1284610F0FDFF084BCC
:104178002846A36010F0F8FF20465C2115F098FD52
:10418800204638BD636D002BEED1F0E724150020E2
:104198007813002070B5044690B00193A37CBDF855
:1041A80004C09DF80600012B0492ADF81AC08DF8E2
:1041B8001C00CDE9021212D000230593ADF8183087
:1041C800202200210DEB02008DF81D1021F070FC5B
:1041D800236802A92046DB69984710B070BD1B4AC6
:1041E8000DF117054FF480761378013303F00703B8
:1041F800D90113709A07C9B248BF41F040015B0763
:1042080005AB48BF41F020019A791031C9B2D2B14B
:10421800B6FBF2F2D2B2501CC0B200FB011CD8703F
:10422800CCF3072E5FEA2C2C0EF1FF3E0CBF83F86F
:1042380000C083F800E000B1DA7001339D42BFD0BE
:104248009A79002AE4D1DA701A70F6E74CC900208E
:1042580038B50379C3B103790546B3B92B6E9BB161
:10426800B5F84E20A2B1002453F82400013420B13F
:1042780015F01CFDB5F84E202B6E9442F4DB3BB9CB
:1042880000232B66A5F84E3038BD00230371E5E7FF
:10429800184615F00BFD00232B66A5F84E30F3E702
:1042A800836C53B1187810F008000DD0D8695B6999
:1042B800C01A48BF6FF000407047C36CA3B193F8B1
:1042C800310010F0080000D17047186919685A6960
:1042D800401A5B6862EB0303B0F1004F73F100030F
:1042E800F2D36FF0004070471846EDE70D21014802
:1042F80017F0D8BB9409002038B50446074D202193
:10430800074817F0CFFB0023214628460A2214F05D
:10431800C3FC2846BDE8384014F094BC1433002090
:10432800DC09002008B52221034817F0BBFB03482D
:10433800BDE8084014F086BC240A0020143300208D
:1043480008484FF0010C0022132108B5064B80F8ED
:1043580000C006481A6017F0A5FB0548BDE80840EC
:1043680014F070BC6BC9002098B9002040090020E7
:104378001433002070B5002390B00568344AADF8B6
:1043880004308DF806302E6896421CD1827C044693
:10439800ADF81A30012A8DF81C30CDE9031101A9B6
:1043A80002911AD00593ADF81830202200210DEBA8
:1043B80002008DF81D1021F07BFBEB6902A9204655
:1043C800984710B070BDADF808300A468DF80A302D
:1043D80001A9029BB04710B070BD1E4A0DF1170C21
:1043E8004FF4807E1378013303F00703D90113706B
:1043F8009A074FF00002C9B248BF41F040015B077D
:1044080005AB48BF41F020011031C9B2BAB1BEFBBB
:10441800F2F2D2B2501CC0B200FB0115D870C5F33D
:1044280007262D1206F1FF360CBF1D701E7000B155
:10443800DA7001339C4508D09A79002AE7D1DA70FE
:10444800013303F8012C9C45F6D12568ADE700BF80
:10445800C50B00004CC900202F4B1B782DE9F041FB
:104468001BB12E4A1368013313602D4B2D4C1D6868
:10447800236863B12C4E226833682C4F2B449B1A57
:1044880033603B6801333B603B68172B02DC2560D7
:10449800BDE8F08196ED007AF3EE086A9FED246A94
:1044A800B8EE477ADFF898802248C7EE267A67EE9A
:1044B800A67A86EE277AB7EEC77AB8FE477BFDEE76
:1044C800C77B17EE901AC8ED037A14F0AFFB1948B2
:1044D80014F0B8FBD8F80C204EF6602393FBF2F3E7
:1044E800002B4FF47A72B8BF03339B1002FB03F31F
:1044F800002B0BDB591E104A914207D20F4A126853
:1045080022B103EB4303DB00013B136000233B6054
:1045180033602560BDE8F0816BC9002098B90020A0
:1045280024BC0020EC6B002034C50020CC670020A0
:1045380000606A4714330020AAAAAA0A903C002007
:104548009432002030B4029C11469C4634B1012CB0
:104558001CD0022C0ED0002030BC7047056DF5B180
:104568004FF0FF33934274EB0C04F4D3284630BC6D
:104578000EF086BF026D0AB3D36959184CF10003D7
:10458800002BE8D1104630BC0EF07ABF026D62B144
:10459800536959184CF10003002BDCD1F2E7406D48
:1045A8000028D8D030BC0CF02FBB406D0028D2D0EA
:1045B800D0E900238A184CEB0303F3E7406D002889
:1045C800C9D0D0E9042330BC8A184CEB03030CF0A3
:1045D8001BBB00BFF0B595B0514E0346514910A81A
:1045E800514D336014F0A8FC33680A220CA84F4FD1
:1045F800196B14F0B5FC0CA910A814F057FD4C4920
:1046080014F05CFD336804460A22596B08A814F0BC
:10461800A7FC08A9204614F049FD454914F04EFDB1
:10462800336804460A22996B04A814F099FC04A97B
:104638002046002414F03AFD0146684614F022FC96
:1046480004A814F03DFC08A814F03AFC0CA814F0D7
:1046580037FC10A814F034FC0E21364817F022FA63
:10466800354814F0EFFA316810A814F00BFC334900
:1046780010A814F023FD694614F018FD01462E48D1
:1046880014F0AEFA2C4814F0DDFA10A814F018FC57
:104698003368B7EE003B03EB8403B0EE431B1A6AA2
:1046A80093ED0C0A930007EE902AB8EEC00B04EEC7
:1046B800103AB8EEE72BB8EEC44B09F0C1FACCB902
:1046C8003368B7EE003B1A6BBB421B6AB0EE431B64
:1046D80018BFC2F1110207EE902A9A00B8EEE70B54
:1046E80004EE102A07EE903AB8EEC44BB8EEE72B6A
:1046F80009F0A6FAB8FE400BBDEEC00BB8EEC00A32
:1047080072B6BDEEC00A85ED050A62B601341C35E5
:10471800042CBDD1684614F0D3FB15B0F0BD00BF22
:10472800C8380020C00E0020EC670020103C002094
:1047380058210020180900201433002028090020DF
:1047480010B5094B04460069236058B14368013B22
:1047580043603BB90368DB6A9847206910B1036876
:104768005B689847204610BDD414002010B50B4B49
:1047780004460069236058B14368013B43603BB974
:104788000368DB6A9847206910B103685B6898473B
:104798002046142115F08CFA204610BDD4140020B0
:1047A800BB4B1B782DE9F04FDFF83C932DED048BC4
:1047B80093B0B3B1B749D9F800300A68B64C0133A1
:1047C8000132C9F800300A606269B3EB021F00F3D6
:1047D8008F81B24D2A68B3EB021F02D90123C9F8B1
:1047E80000304FF00A084FF0010AAD4FDFF8C0B2B1
:1047F8009FEDAC8ADFEDAC8A9FEDAC9A12E0D9F858
:10480800003003EB0313534457F833301BB1A84A65
:1048180052F8234084B1A74B0AF1010A08F10A08AB
:104828009B455AD05BF8043F002BE8D0A24B53F8C5
:104838002A000AF03DFDE2E70721A04817F032F907
:104848009F4814F0FFF951469D4814F0EFF99C4831
:1048580014F0F8F9D9F8002002EB021311015344BF
:1048680057F833300E2B3DD107EE908AF8EEE77AF1
:10487800F5EEC07AF1EE10FA00F10581F4EEE87A6F
:10488800F1EE10FA40F3D7818E488F4BC3618B1835
:10489800F7EE006A534407EBC30393ED017AB8EED1
:1048A800477AC7EE087AF4EEE67AF1EE10FA40F3AA
:1048B800BB814FF4803343620AF1010A834808F14F
:1048C8000A080AF0CDFC824B1A68824B1A60012252
:1048D800814B1A70774B9B45A4D113B0BDEC048B68
:1048E800BDE8F08F0C217D4817F0DCF8744814F00F
:1048F800A9F9D9F800300A22714803EB031353448D
:1049080057F83310234614F0C7F96D4814F09AF994
:10491800D9F80020DFF8D4C10AF1FF3002EB021504
:104928001101554457F8353007EBC5065CF823509C
:10493800C01A367905EB4505039600EB8500C0B231
:104948000290002E56D09E0003EB83050596644E18
:104958004FEA851E06EB8510029D451995F82050F3
:10496800FF2D049500F022810125059E01228DF876
:1049780024501E44049B8DF823208DF82030029B80
:10498800574A8DF82130039B8DF82230B30103F18B
:10499800100010448268002A00F07981504A08A962
:1049A80013440DF12102DC6909AB01930DF12303D6
:1049B80000930DF12203A047049A0399484B02EB98
:1049C80006164348009103EB860101950068029B97
:1049D800C1F8F40043493A4814F050F9D9F80020D6
:1049E80002EB02131101534457F833300E2B7FF4B6
:1049F80012AF39E703EB83043948049400EB8416BB
:104A0800A001029C3519029595F82050FF2DEDD094
:104A1800334B1030039A18448DF826408DF82550F2
:104A280083688DF827208DF828208DF83820002BF2
:104A380000F02D810EAB0DF126020DF12501019339
:104A48000AAB00930DF12703F469A047049C24489E
:104A580005EB04131E49D9F80020354400EB830305
:104A680009680298C3F8B41002EB0213FF215344FB
:104A780080F8201057F8333085F8A01011010E2B5C
:104A88007FF4C9AEF0E60F480023C361FFE600BF1C
:104A980053C9002088B6002094320020283B00200B
:104AA800B8710020000048430044AC46C637BE47F2
:104AB80078710020B4710020640E0020E00A002004
:104AC8001433002094C700200000FE7FBC6900203A
:104AD80024BC00201CBC002054C90020E80A002087
:104AE8001C5600200C0B0020A8670020D4320020A0
:104AF8000120684D02442B680860082A6649D4BF23
:104B080010460246834238BF01220EA8626114F0A3
:104B180013FA0A2261690AA814F022FA0AA90EA84F
:104B280014F0C4FA01465D4814F05AF85B4814F0D2
:104B380089F80AA814F0C4F90EA814F0C1F9584964
:104B48000EA814F0F9F90A2229680AA814F020FA24
:104B58000AA90EA814F0AAFA0146504814F040F821
:104B68004E4814F06FF80AA814F0AAF90EA814F029
:104B7800A7F94C490EA814F0DFF90A22A1690AA87E
:104B880014F0EEF90AA90EA814F090FA0146434869
:104B980014F026F8414814F055F80AA814F090F9D2
:104BA8000EA814F08DF9D9F8003013E690F8B0008B
:104BB80000284ED03C4D0EF19F0607944FF0FF3C65
:104BC8002C462E440EF1B4052C440694079C03E0B1
:104BD800651CA8420FD02C4616F8015FFF2DF7D1AF
:104BE800069D55F82450AC45F2D9AC46E5B204957B
:104BF800651CA842EFD10794049CFF2C2FD0049D7C
:104C0800A84226D90598FF2D274C1844029E04EB8C
:104C1800801000EB0504304484F8A06080F8205030
:104C28003FF4E4AE0025A0E6B0EE677ABEEEC87A9F
:104C380017EE103A3FE667EE897A1C4C1C48FCEEEA
:104C4800E77A17EE903AC0ED077AA3423FF61DAE19
:104C58001DE6029A1749114814F010F8BEE60EF145
:104C6800F005114C069300262544DDF81CE0049B52
:104C780000E0264655F8044FA44501D9A446F3B2EE
:104C8800B64506F10104F4D10493069BB7E717F083
:104C9800ADFA00BF283B0020B80A002014330020DA
:104CA800C40A0020D40A00201C5600200000FE7F01
:104CB80094C70020F80A0020214B5A68D2E9001056
:104CC800D3680968006810B41842946801EA0401BE
:104CD8002ED0137C03F00303D9B943F008039908D5
:104CE800013B11740D2B0BD8DFE803F00D071C07EF
:104CF8000A160D0D160A071C070D5369013B53616F
:104D08005DF8044B704753695DF8044B01335361F8
:104D1800704743F00403E0E753695DF8044B023B36
:104D28005361704753695DF8044B02335361704710
:104D3800137C03F003030029D1D043F00403CEE72A
:104D4800EC510020214B9A68D2E90010D368096819
:104D5800006810B41842946801EA04012ED0137C4C
:104D680003F00303D9B943F008039908013B117410
:104D78000D2B0BD8DFE803F00D071C070A160D0DE5
:104D8800160A071C070D5369013B53615DF8044B74
:104D9800704753695DF8044B01335361704743F022
:104DA8000403E0E753695DF8044B023B5361704725
:104DB80053695DF8044B023353617047137C03F069
:104DC80003030029D1D043F00403CEE7EC510020BF
:104DD800214BDA68D2E90010D3680968006810B47A
:104DE8001842946801EA04012ED0137C03F00303EF
:104DF800D9B943F008039908013B11740D2B0BD85E
:104E0800DFE803F00D071C070A160D0D160A071C2C
:104E1800070D5369013B53615DF8044B70475369B3
:104E28005DF8044B01335361704743F00403E0E736
:104E380053695DF8044B023B5361704753695DF851
:104E4800044B023353617047137C03F003030029BA
:104E5800D1D043F00403CEE7EC510020214B1A696E
:104E6800D2E90010D3680968006810B41842946841
:104E780001EA04012ED0137C03F00303D9B943F0EF
:104E880008039908013B11740D2B0BD8DFE803F0D8
:104E98000D071C070A160D0D160A071C070D536986
:104EA800013B53615DF8044B704753695DF8044B4F
:104EB80001335361704743F00403E0E753695DF839
:104EC800044B023B5361704753695DF8044B02334E
:104ED80053617047137C03F003030029D1D043F0DA
:104EE8000403CEE7EC510020214B5A69D2E90010A7
:104EF800D3680968006810B41842946801EA04018C
:104F08002ED0137C03F00303D9B943F008039908A2
:104F1800013B11740D2B0BD8DFE803F00D071C07BC
:104F28000A160D0D160A071C070D5369013B53613C
:104F38005DF8044B704753695DF8044B01335361C6
:104F4800704743F00403E0E753695DF8044B023B04
:104F58005361704753695DF8044B023353617047DE
:104F6800137C03F003030029D1D043F00403CEE7F8
:104F7800EC510020214B9A69D2E90010D3680968E6
:104F8800006810B41842946801EA04012ED0137C1A
:104F980003F00303D9B943F008039908013B1174DE
:104FA8000D2B0BD8DFE803F00D071C070A160D0DB3
:104FB800160A071C070D5369013B53615DF8044B42
:104FC800704753695DF8044B01335361704743F0F0
:104FD8000403E0E753695DF8044B023B53617047F3
:104FE80053695DF8044B023353617047137C03F037
:104FF80003030029D1D043F00403CEE7EC5100208D
:10500800214BDA69D2E90010D3680968006810B446
:105018001842946801EA04012ED0137C03F00303BC
:10502800D9B943F008039908013B11740D2B0BD82B
:10503800DFE803F00D071C070A160D0D160A071CFA
:10504800070D5369013B53615DF8044B7047536981
:105058005DF8044B01335361704743F00403E0E704
:1050680053695DF8044B023B5361704753695DF81F
:10507800044B023353617047137C03F00303002988
:10508800D1D043F00403CEE7EC510020214B1A6A3B
:10509800D2E90010D3680968006810B4184294680F
:1050A80001EA04012ED0137C03F00303D9B943F0BD
:1050B80008039908013B11740D2B0BD8DFE803F0A6
:1050C8000D071C070A160D0D160A071C070D536954
:1050D800013B53615DF8044B704753695DF8044B1D
:1050E80001335361704743F00403E0E753695DF807
:1050F800044B023B5361704753695DF8044B02331C
:1051080053617047137C03F003030029D1D043F0A7
:105118000403CEE7EC510020214B5A6AD2E9001073
:10512800D3680968006810B41842946801EA040159
:105138002ED0137C03F00303D9B943F00803990870
:10514800013B11740D2B0BD8DFE803F00D071C078A
:105158000A160D0D160A071C070D5369013B53610A
:105168005DF8044B704753695DF8044B0133536194
:10517800704743F00403E0E753695DF8044B023BD2
:105188005361704753695DF8044B023353617047AC
:10519800137C03F003030029D1D043F00403CEE7C6
:1051A800EC510020214B9A6AD2E90010D3680968B3
:1051B800006810B41842946801EA04012ED0137CE8
:1051C80003F00303D9B943F008039908013B1174AC
:1051D8000D2B0BD8DFE803F00D071C070A160D0D81
:1051E800160A071C070D5369013B53615DF8044B10
:1051F800704753695DF8044B01335361704743F0BE
:105208000403E0E753695DF8044B023B53617047C0
:1052180053695DF8044B023353617047137C03F004
:1052280003030029D1D043F00403CEE7EC5100205A
:10523800214BDA6AD2E90010D3680968006810B413
:105248001842946801EA04012ED0137C03F003038A
:10525800D9B943F008039908013B11740D2B0BD8F9
:10526800DFE803F00D071C070A160D0D160A071CC8
:10527800070D5369013B53615DF8044B704753694F
:105288005DF8044B01335361704743F00403E0E7D2
:1052980053695DF8044B023B5361704753695DF8ED
:1052A800044B023353617047137C03F00303002956
:1052B800D1D043F00403CEE7EC510020214B1A6B08
:1052C800D2E90010D3680968006810B418429468DD
:1052D80001EA04012ED0137C03F00303D9B943F08B
:1052E80008039908013B11740D2B0BD8DFE803F074
:1052F8000D071C070A160D0D160A071C070D536922
:10530800013B53615DF8044B704753695DF8044BEA
:1053180001335361704743F00403E0E753695DF8D4
:10532800044B023B5361704753695DF8044B0233E9
:1053380053617047137C03F003030029D1D043F075
:105348000403CEE7EC510020214B5A6BD2E9001040
:10535800D3680968006810B41842946801EA040127
:105368002ED0137C03F00303D9B943F0080399083E
:10537800013B11740D2B0BD8DFE803F00D071C0758
:105388000A160D0D160A071C070D5369013B5361D8
:105398005DF8044B704753695DF8044B0133536162
:1053A800704743F00403E0E753695DF8044B023BA0
:1053B8005361704753695DF8044B0233536170477A
:1053C800137C03F003030029D1D043F00403CEE794
:1053D800EC510020214B9A6BD2E90010D368096880
:1053E800006810B41842946801EA04012ED0137CB6
:1053F80003F00303D9B943F008039908013B11747A
:105408000D2B0BD8DFE803F00D071C070A160D0D4E
:10541800160A071C070D5369013B53615DF8044BDD
:10542800704753695DF8044B01335361704743F08B
:105438000403E0E753695DF8044B023B536170478E
:1054480053695DF8044B023353617047137C03F0D2
:1054580003030029D1D043F00403CEE7EC51002028
:10546800214BDA6BD2E90010D3680968006810B4E0
:105478001842946801EA04012ED0137C03F0030358
:10548800D9B943F008039908013B11740D2B0BD8C7
:10549800DFE803F00D071C070A160D0D160A071C96
:1054A800070D5369013B53615DF8044B704753691D
:1054B8005DF8044B01335361704743F00403E0E7A0
:1054C80053695DF8044B023B5361704753695DF8BB
:1054D800044B023353617047137C03F00303002924
:1054E800D1D043F00403CEE7EC510020214B1A6CD5
:1054F800D2E90010D3680968006810B418429468AB
:1055080001EA04012ED0137C03F00303D9B943F058
:1055180008039908013B11740D2B0BD8DFE803F041
:105528000D071C070A160D0D160A071C070D5369EF
:10553800013B53615DF8044B704753695DF8044BB8
:1055480001335361704743F00403E0E753695DF8A2
:10555800044B023B5361704753695DF8044B0233B7
:1055680053617047137C03F003030029D1D043F043
:105578000403CEE7EC510020224BD3F8D420D2E923
:105588000010D3680968006810B41842946801EAEA
:1055980004012ED0137C03F00303D9B943F00803A8
:1055A8009908013B11740D2B0BD8DFE803F00D07A8
:1055B8001C070A160D0D160A071C070D5369013B37
:1055C80053615DF8044B704753695DF8044B013330
:1055D8005361704743F00403E0E753695DF8044BF7
:1055E800023B5361704753695DF8044B02335361C2
:1055F8007047137C03F003030029D1D043F0040360
:10560800CEE700BFEC510020224BD3F8D820D2E9D6
:105618000010D3680968006810B41842946801EA59
:1056280004012ED0137C03F00303D9B943F0080317
:105638009908013B11740D2B0BD8DFE803F00D0717
:105648001C070A160D0D160A071C070D5369013BA6
:1056580053615DF8044B704753695DF8044B01339F
:105668005361704743F00403E0E753695DF8044B66
:10567800023B5361704753695DF8044B0233536131
:105688007047137C03F003030029D1D043F00403CF
:10569800CEE700BFEC510020214B5A6CD2E9001034
:1056A800D3680968006810B41842946801EA0401D4
:1056B8002ED0137C03F00303D9B943F008039908EB
:1056C800013B11740D2B0BD8DFE803F00D071C0705
:1056D8000A160D0D160A071C070D5369013B536185
:1056E8005DF8044B704753695DF8044B013353610F
:1056F800704743F00403E0E753695DF8044B023B4D
:105708005361704753695DF8044B02335361704726
:10571800137C03F003030029D1D043F00403CEE740
:10572800EC510020214B9A6CD2E90010D36809682B
:10573800006810B41842946801EA04012ED0137C62
:1057480003F00303D9B943F008039908013B117426
:105758000D2B0BD8DFE803F00D071C070A160D0DFB
:10576800160A071C070D5369013B53615DF8044B8A
:10577800704753695DF8044B01335361704743F038
:105788000403E0E753695DF8044B023B536170473B
:1057980053695DF8044B023353617047137C03F07F
:1057A80003030029D1D043F00403CEE7EC510020D5
:1057B800214BDA6CD2E90010D3680968006810B48C
:1057C8001842946801EA04012ED0137C03F0030305
:1057D800D9B943F008039908013B11740D2B0BD874
:1057E800DFE803F00D071C070A160D0D160A071C43
:1057F800070D5369013B53615DF8044B70475369CA
:105808005DF8044B01335361704743F00403E0E74C
:1058180053695DF8044B023B5361704753695DF867
:10582800044B023353617047137C03F003030029D0
:10583800D1D043F00403CEE7EC510020214B1A6D80
:10584800D2E90010D3680968006810B41842946857
:1058580001EA04012ED0137C03F00303D9B943F005
:1058680008039908013B11740D2B0BD8DFE803F0EE
:105878000D071C070A160D0D160A071C070D53699C
:10588800013B53615DF8044B704753695DF8044B65
:1058980001335361704743F00403E0E753695DF84F
:1058A800044B023B5361704753695DF8044B023364
:1058B80053617047137C03F003030029D1D043F0F0
:1058C8000403CEE7EC510020214B5A6DD2E90010B9
:1058D800D3680968006810B41842946801EA0401A2
:1058E8002ED0137C03F00303D9B943F008039908B9
:1058F800013B11740D2B0BD8DFE803F00D071C07D3
:105908000A160D0D160A071C070D5369013B536152
:105918005DF8044B704753695DF8044B01335361DC
:10592800704743F00403E0E753695DF8044B023B1A
:105938005361704753695DF8044B023353617047F4
:10594800137C03F003030029D1D043F00403CEE70E
:10595800EC510020214B9A6DD2E90010D3680968F8
:10596800006810B41842946801EA04012ED0137C30
:1059780003F00303D9B943F008039908013B1174F4
:105988000D2B0BD8DFE803F00D071C070A160D0DC9
:10599800160A071C070D5369013B53615DF8044B58
:1059A800704753695DF8044B01335361704743F006
:1059B8000403E0E753695DF8044B023B5361704709
:1059C80053695DF8044B023353617047137C03F04D
:1059D80003030029D1D043F00403CEE7EC510020A3
:1059E800214BDA6DD2E90010D3680968006810B459
:1059F8001842946801EA04012ED0137C03F00303D3
:105A0800D9B943F008039908013B11740D2B0BD841
:105A1800DFE803F00D071C070A160D0D160A071C10
:105A2800070D5369013B53615DF8044B7047536997
:105A38005DF8044B01335361704743F00403E0E71A
:105A480053695DF8044B023B5361704753695DF835
:105A5800044B023353617047137C03F0030300299E
:105A6800D1D043F00403CEE7EC510020214B1A6E4D
:105A7800D2E90010D3680968006810B41842946825
:105A880001EA04012ED0137C03F00303D9B943F0D3
:105A980008039908013B11740D2B0BD8DFE803F0BC
:105AA8000D071C070A160D0D160A071C070D53696A
:105AB800013B53615DF8044B704753695DF8044B33
:105AC80001335361704743F00403E0E753695DF81D
:105AD800044B023B5361704753695DF8044B023332
:105AE80053617047137C03F003030029D1D043F0BE
:105AF8000403CEE7EC510020214B5A6ED2E9001086
:105B0800D3680968006810B41842946801EA04016F
:105B18002ED0137C03F00303D9B943F00803990886
:105B2800013B11740D2B0BD8DFE803F00D071C07A0
:105B38000A160D0D160A071C070D5369013B536120
:105B48005DF8044B704753695DF8044B01335361AA
:105B5800704743F00403E0E753695DF8044B023BE8
:105B68005361704753695DF8044B023353617047C2
:105B7800137C03F003030029D1D043F00403CEE7DC
:105B8800EC510020214B9A6ED2E90010D3680968C5
:105B9800006810B41842946801EA04012ED0137CFE
:105BA80003F00303D9B943F008039908013B1174C2
:105BB8000D2B0BD8DFE803F00D071C070A160D0D97
:105BC800160A071C070D5369013B53615DF8044B26
:105BD800704753695DF8044B01335361704743F0D4
:105BE8000403E0E753695DF8044B023B53617047D7
:105BF80053695DF8044B023353617047137C03F01B
:105C080003030029D1D043F00403CEE7EC51002070
:105C1800214BDA6ED2E90010D3680968006810B425
:105C28001842946801EA04012ED0137C03F00303A0
:105C3800D9B943F008039908013B11740D2B0BD80F
:105C4800DFE803F00D071C070A160D0D160A071CDE
:105C5800070D5369013B53615DF8044B7047536965
:105C68005DF8044B01335361704743F00403E0E7E8
:105C780053695DF8044B023B5361704753695DF803
:105C8800044B023353617047137C03F0030300296C
:105C9800D1D043F00403CEE7EC510020214B1A6F1A
:105CA800D2E90010D3680968006810B418429468F3
:105CB80001EA04012ED0137C03F00303D9B943F0A1
:105CC80008039908013B11740D2B0BD8DFE803F08A
:105CD8000D071C070A160D0D160A071C070D536938
:105CE800013B53615DF8044B704753695DF8044B01
:105CF80001335361704743F00403E0E753695DF8EB
:105D0800044B023B5361704753695DF8044B0233FF
:105D180053617047137C03F003030029D1D043F08B
:105D28000403CEE7EC510020214B5A6FD2E9001052
:105D3800D3680968006810B41842946801EA04013D
:105D48002ED0137C03F00303D9B943F00803990854
:105D5800013B11740D2B0BD8DFE803F00D071C076E
:105D68000A160D0D160A071C070D5369013B5361EE
:105D78005DF8044B704753695DF8044B0133536178
:105D8800704743F00403E0E753695DF8044B023BB6
:105D98005361704753695DF8044B02335361704790
:105DA800137C03F003030029D1D043F00403CEE7AA
:105DB800EC510020214B9A6FD2E90010D368096892
:105DC800006810B41842946801EA04012ED0137CCC
:105DD80003F00303D9B943F008039908013B117490
:105DE8000D2B0BD8DFE803F00D071C070A160D0D65
:105DF800160A071C070D5369013B53615DF8044BF4
:105E0800704753695DF8044B01335361704743F0A1
:105E18000403E0E753695DF8044B023B53617047A4
:105E280053695DF8044B023353617047137C03F0E8
:105E380003030029D1D043F00403CEE7EC5100203E
:105E4800214BDA6FD2E90010D3680968006810B4F2
:105E58001842946801EA04012ED0137C03F003036E
:105E6800D9B943F008039908013B11740D2B0BD8DD
:105E7800DFE803F00D071C070A160D0D160A071CAC
:105E8800070D5369013B53615DF8044B7047536933
:105E98005DF8044B01335361704743F00403E0E7B6
:105EA80053695DF8044B023B5361704753695DF8D1
:105EB800044B023353617047137C03F0030300293A
:105EC800D1D043F00403CEE7EC510020224BD3F8A5
:105ED8008020D2E90010D3680968006810B418421D
:105EE800946801EA04012ED0137C03F00303D9B9A6
:105EF80043F008039908013B11740D2B0BD8DFE818
:105F080003F00D071C070A160D0D160A071C070DCE
:105F18005369013B53615DF8044B704753695DF861
:105F2800044B01335361704743F00403E0E75369BE
:105F38005DF8044B023B5361704753695DF8044BAD
:105F4800023353617047137C03F003030029D1D057
:105F580043F00403CEE700BFEC510020224BD3F8F6
:105F68008420D2E90010D3680968006810B4184288
:105F7800946801EA04012ED0137C03F00303D9B915
:105F880043F008039908013B11740D2B0BD8DFE887
:105F980003F00D071C070A160D0D160A071C070D3E
:105FA8005369013B53615DF8044B704753695DF8D1
:105FB800044B01335361704743F00403E0E753692E
:105FC8005DF8044B023B5361704753695DF8044B1D
:105FD800023353617047137C03F003030029D1D0C7
:105FE80043F00403CEE700BFEC510020224BD3F866
:105FF8008820D2E90010D3680968006810B41842F4
:10600800946801EA04012ED0137C03F00303D9B984
:1060180043F008039908013B11740D2B0BD8DFE8F6
:1060280003F00D071C070A160D0D160A071C070DAD
:106038005369013B53615DF8044B704753695DF840
:10604800044B01335361704743F00403E0E753699D
:106058005DF8044B023B5361704753695DF8044B8C
:10606800023353617047137C03F003030029D1D036
:1060780043F00403CEE700BFEC510020224BD3F8D5
:106088008C20D2E90010D3680968006810B418425F
:10609800946801EA04012ED0137C03F00303D9B9F4
:1060A80043F008039908013B11740D2B0BD8DFE866
:1060B80003F00D071C070A160D0D160A071C070D1D
:1060C8005369013B53615DF8044B704753695DF8B0
:1060D800044B01335361704743F00403E0E753690D
:1060E8005DF8044B023B5361704753695DF8044BFC
:1060F800023353617047137C03F003030029D1D0A6
:1061080043F00403CEE700BFEC510020224BD3F844
:106118009020D2E90010D3680968006810B41842CA
:10612800946801EA04012ED0137C03F00303D9B963
:1061380043F008039908013B11740D2B0BD8DFE8D5
:1061480003F00D071C070A160D0D160A071C070D8C
:106158005369013B53615DF8044B704753695DF81F
:10616800044B01335361704743F00403E0E753697C
:106178005DF8044B023B5361704753695DF8044B6B
:10618800023353617047137C03F003030029D1D015
:1061980043F00403CEE700BFEC510020224BD3F8B4
:1061A8009420D2E90010D3680968006810B4184236
:1061B800946801EA04012ED0137C03F00303D9B9D3
:1061C80043F008039908013B11740D2B0BD8DFE845
:1061D80003F00D071C070A160D0D160A071C070DFC
:1061E8005369013B53615DF8044B704753695DF88F
:1061F800044B01335361704743F00403E0E75369EC
:106208005DF8044B023B5361704753695DF8044BDA
:10621800023353617047137C03F003030029D1D084
:1062280043F00403CEE700BFEC510020224BD3F823
:106238009820D2E90010D3680968006810B41842A1
:10624800946801EA04012ED0137C03F00303D9B942
:1062580043F008039908013B11740D2B0BD8DFE8B4
:1062680003F00D071C070A160D0D160A071C070D6B
:106278005369013B53615DF8044B704753695DF8FE
:10628800044B01335361704743F00403E0E753695B
:106298005DF8044B023B5361704753695DF8044B4A
:1062A800023353617047137C03F003030029D1D0F4
:1062B80043F00403CEE700BFEC510020224BD3F893
:1062C8009C20D2E90010D3680968006810B418420D
:1062D800946801EA04012ED0137C03F00303D9B9B2
:1062E80043F008039908013B11740D2B0BD8DFE824
:1062F80003F00D071C070A160D0D160A071C070DDB
:106308005369013B53615DF8044B704753695DF86D
:10631800044B01335361704743F00403E0E75369CA
:106328005DF8044B023B5361704753695DF8044BB9
:10633800023353617047137C03F003030029D1D063
:1063480043F00403CEE700BFEC510020224BD3F802
:10635800A020D2E90010D3680968006810B4184278
:10636800946801EA04012ED0137C03F00303D9B921
:1063780043F008039908013B11740D2B0BD8DFE893
:1063880003F00D071C070A160D0D160A071C070D4A
:106398005369013B53615DF8044B704753695DF8DD
:1063A800044B01335361704743F00403E0E753693A
:1063B8005DF8044B023B5361704753695DF8044B29
:1063C800023353617047137C03F003030029D1D0D3
:1063D80043F00403CEE700BFEC51002010B584B0B1
:1063E80004460391029212F0DBF800222046DDE910
:1063F8000231009212F048F9204604B010BD00BFE7
:1064080010B50023044610460D4A617223722260BB
:10641800C4E9033019B18A0019461FF049FB094A3B
:10642800136853B11A465B69002BFBD154610023F2
:10643800204663616360A37210BD1460F7E700BF74
:10644800A81300203850002003460022134910B436
:10645800134C43F8184B4FF4807482610481C0E9EF
:1064680003230B68C3B11A465B69002BFBD150614B
:1064780000230C4A4FF468140B494361436083724C
:1064880002604FF000520377084BC0E90A41C0E9A7
:106498000C235DF8044B70470860E9E7385000208A
:1064A800A8130020701400200E00C10076061C00FE
:1064B8000022034613494FF4806C10B4124C43F881
:1064C800284BA0F808C0C0E903230B68C0E90A22DA
:1064D800C0E90C229BB11A465B69002BFBD15061C5
:1064E80000224FF4803309495DF8044B4261426051
:1064F80082720160C0E90633C0E90833704708605A
:10650800EEE700BF38500020A81300209C1300209D
:1065180010B5044600694368013B43603BB9036812
:10652800DB6A9847206910B103685B6898470023C5
:10653800236110BD012BF0B5054695B03DD0022B67
:1065480040F2022001F104010CBF03460023684613
:106558000EF024FF129B002B38D05C20002613F08D
:106568009FFB214B04AF0446C0E90036019B394626
:10657800183040F80C3C1D4B40F8103C029B40F88A
:10658800083C9DF80C3000F8043C0EF0ABFD184BAD
:106598004FF47A72A665A360164B6E602B60636831
:1065A8002E730133AA602C616360134B3846009345
:1065B8000EF0DAFD284615B0F0BD44F2022304318E
:1065C80068460EF0EBFE129B002BC6D1139B002BE6
:1065D800C3D14FF47A71074A04AF2B732A602B6139
:1065E800C5E90131E1E700BF24150020801500202E
:1065F80000150020D414002078130020D0E90021D1
:10660800C3681268096810B41942846802EA04026F
:106618002ED0037C03F00303DAB943F008039A0889
:10662800013B02740D2B0BD8DFE803F00D071C07A4
:106638000A160D0D160A071C070D4369013B436135
:106648005DF8044B704743695DF8044B01334361BF
:10665800704743F00403E0E743695DF8044B023BED
:106668004361704743695DF8044B023343617047E7
:10667800037C03F00303002AD1D043F00403CEE7E0
:1066880008B5034BD3F8D000FFF7B8FF08BD00BF2B
:10669800EC51002008B5034BD3F8CC00FFF7AEFF50
:1066A80008BD00BFEC51002008B5034BD3F8C80063
:1066B800FFF7A4FF08BD00BFEC51002008B5034B4D
:1066C800D3F8C400FFF79AFF08BD00BFEC510020C3
:1066D80008B5034BD3F8C000FFF790FF08BD00BF13
:1066E800EC51002008B5034BD3F8BC00FFF786FF38
:1066F80008BD00BFEC51002008B5034BD3F8B80023
:10670800FFF77CFF08BD00BFEC51002008B5034B24
:10671800D3F8B400FFF772FF08BD00BFEC510020AA
:1067280008B5034BD3F8B000FFF768FF08BD00BFFA
:10673800EC51002008B5034BD3F8AC00FFF75EFF1F
:1067480008BD00BFEC51002008B5034BD3F8A800E2
:10675800FFF754FF08BD00BFEC51002008B5034BFC
:10676800D3F8A400FFF74AFF08BD00BFEC51002092
:1067780008B5024B1868FFF741FF08BDEC5100202F
:106788000B4610B5362800F29782DFE810F08C022D
:1067980082027902700267025E0255024C024302CD
:1067A8003A02310228021F02BF01B601AD01A4015D
:1067B8009B0192018901800177016E0165015C01ED
:1067C80053014A01410138012F0126011D0113011E
:1067D8000901FF00F500EB00E100D700CD00C30080
:1067E800B900AF00A5009B00910087007D007300F1
:1067F80069005F0055004B0041003700C84C042277
:10680800C8493620C4F8D83013F02CF9012010BD3F
:10681800C34C0422C4493520C4F8D43013F022F9FB
:10682800012010BDBE4C0422C0493420C4F8D03029
:1068380013F018F9012010BDB94C0422BC493320CB
:10684800C4F8CC3013F00EF9012010BDB44C04226A
:10685800B8493220C4F8C83013F004F9012010BD3B
:10686800AF4C0422B4493120C4F8C43013F0FAF80C
:10687800012010BDAA4C0422B0493020C4F8C03011
:1068880013F0F0F8012010BDA54C0422AC492F20CC
:10689800C4F8BC3013F0E6F8012010BDA04C042267
:1068A800A8492E20C4F8B83013F0DCF8012010BD38
:1068B8009B4C0422A4492D20C4F8B43013F0D2F81C
:1068C800012010BD964C0422A0492C20C4F8B030F9
:1068D80013F0C8F8012010BD914C04229C492B20CC
:1068E800C4F8AC3013F0BEF8012010BD8C4C042263
:1068F80098492A20C4F8A83013F0B4F8012010BD34
:10690800874C042294492920C4F8A43013F0AAF82B
:10691800012010BD824C042290492820C4F8A030E0
:1069280013F0A0F8012010BD7D4C04228C492720CB
:10693800C4F89C3013F096F8012010BD784C04225E
:1069480088492620C4F8983013F08CF8012010BD2F
:10695800734C042284492520C4F8943013F082F83B
:10696800012010BD6E4C042280492420C4F89030C8
:1069780013F078F8012010BD694C04227C492320CB
:10698800C4F88C3013F06EF8012010BD644C04225A
:1069980078492220C4F8883013F064F8012010BD2B
:1069A8005F4C042274492120C4F8843013F05AF84B
:1069B800012010BD5A4C042270492020C4F88030B0
:1069C80013F050F8012010BD554C04226C491F20CB
:1069D800E36713F047F8012010BD514C04226949C0
:1069E8001E20A36713F03EF8012010BD4C4C042272
:1069F80065491D20636713F035F8012010BD484C28
:106A0800042262491C20236713F02CF8012010BDD2
:106A1800434C04225E491B20E36613F023F801204F
:106A280010BD3F4C04225B491A20A36613F01AF8E4
:106A3800012010BD3A4C042257491920636613F00F
:106A480011F8012010BD364C042254491820236641
:106A580013F008F8012010BD314C042250491720CA
:106A6800E36512F0FFFF012010BD2D4C04224D49B3
:106A78001620A36512F0F6FF012010BD284C042251
:106A880049491520636512F0EDFF012010BD244C23
:106A9800042246491420236512F0E4FF012010BDAA
:106AA8001F4C042242491320E36412F0DBFF01204B
:106AB80010BD1B4C04223F491220A36412F0D2FFE0
:106AC800012010BD164C04223B491120636412F0CA
:106AD800C9FF012010BD124C04223849102023643C
:106AE80012F0C0FF012010BD0D4C042234490F20C4
:106AF800E36312F0B7FF012010BD094C04223149AD
:106B08000E20A36312F0AEFF012010BD044C042236
:106B18002D490D20636312F0A5FF012010BD00BFB1
:106B2800EC51002039200000A91F0000B1300000FE
:106B3800C5300000D9300000ED3000000131000000
:106B480015310000293100003D31000051310000AD
:106B580065310000793100008D3100007D2D000085
:106B6800ED2C00005D2C0000CD2B00003D2B00001B
:106B7800AD2A00001D2A00008D290000FD28000014
:106B880071280000E527000059270000CD260000E5
:106B980041260000B5250000292500009D2400009D
:106BA8001124000085230000F92200006D22000056
:106BB800E121000055210000C92000001D1F000030
:106BC800911E0000051E0000791D00003B4C0422A8
:106BD8003B490C20236312F045FF012010BD374CC0
:106BE800042238490B20E36212F03CFF012010BD5B
:106BF800324C042234490A20A36212F033FF0120E8
:106C080010BD2E4C042231490920636212F02AFF7C
:106C1800012010BD294C04222D490820236212F0BE
:106C280021FF012010BD254C04222A490720E361D9
:106C380012F018FF012010BD204C0422264906201E
